:100000000C9434000C9451000C9451000C94510049
:100010000C9451000C9451000C9451000C9451001C
:100020000C9451000C9451000C9451000C9451000C
:100030000C9451000C9451000C9451000C945100FC
:100040000C9451000C9451000C9451000C945100EC
:100050000C9451000C9451000C9451000C945100DC
:100060000C9451000C94510011241FBECFEFD8E026
:10007000DEBFCDBF11E0A0E0B1E0E6EBFBE002C0E7
:1000800005900D92AC3FB107D9F722E0ACEFB1E09B
:1000900001C01D92AE32B207E1F70E9423010C9419
:1000A000D9050C94000087B18C7F87B980E48093D8
:1000B0007C0087E880937A000895ECE7F0E0908177
:1000C000907F8F70892B8083EAE7F0E080818064E5
:1000D000808380917A0086FDFCCF8091780090919A
:1000E000790008950F931F93CF93DF93EC01162FA0
:1000F000072FBC0180E090E00E94F40120E030E096
:1001000040EA50E40E94820220E030EC4FE754E4E1
:100110000E9482019F938F937F936F93DF93CF937E
:1001200080E091E09F938F930F931F930E94EF02C3
:100130008DB79EB70A960FB6F8949EBF0FBE8DBFBF
:10014000DF91CF911F910F9108959093C5008093F7
:10015000C40088E18093C1008EE08093C2000895BE
:100160009091C00095FFFCCF8093C60008958091C8
:10017000C0008823E4F78091C6000895CF93DF93F1
:10018000EC0103C00E94B000219688818111FACF52
:10019000DF91CF9108952FEF81EE94E021508040C0
:1001A0009040E1F700C000008EE091E00E94BE00A8
:1001B0002FEF81EE94E0215080409040E1F700C0A5
:1001C000000083E191E00E94BE002FEF81EE94E0F9
:1001D000215080409040E1F700C000008EE191E0A6
:1001E0000E94BE002FEF81EE94E0215080409040AD
:1001F000E1F700C0000089E291E00E94BE002FEF0D
:1002000081EE94E0215080409040E1F700C0000072
:1002100084E391E00E94BE002FEF81EE94E0215034
:1002200080409040E1F700C000008FE391E00E9421
:10023000BE002FEF81EE94E0215080409040E1F726
:1002400000C00000089587E690E00E94A5000E948B
:1002500053002FEF89E698E1215080409040E1F76C
:1002600000C000000E94CB0085E591E00E94BE0026
:100270008EE791E00E94BE008BE891E00E94BE00F4
:1002800088EA91E00E94BE00C0E08091C00088230F
:100290008CF40E94B700813331F485EC91E00E9428
:1002A000BE00C0E007C0823329F489ED91E00E94CE
:1002B000BE00C1E08C2F0E945D006CEF71E00E94D7
:1002C00072008DEE91E00E94BE00C11102C081E378
:1002D00001C082E30E94B00089EF91E00E94BE005D
:1002E0008CEF91E00E94BE0088E891E00E94BE0081
:1002F0002FEF83ED90E3215080409040E1F700C064
:100300000000C3CF0E9496010C9448020E94410253
:1003100058F00E943A0240F029F45F3F29F00C9413
:10032000310251110C947C020C9437020E94590244
:1003300068F39923B1F3552391F3951B550BBB2714
:10034000AA2762177307840738F09F5F5F4F220F59
:10035000331F441FAA1FA9F335D00E2E3AF0E0E850
:1003600032D091505040E695001CCAF72BD0FE2F9A
:1003700029D0660F771F881FBB1F2617370748072E
:10038000AB07B0E809F0BB0B802DBF01FF279358E6
:100390005F4F3AF09E3F510578F00C9431020C9477
:1003A0007C025F3FE4F3983ED4F38695779567959A
:1003B000B795F7959F5FC9F7880F911D969587951B
:1003C00097F90895E1E0660F771F881FBB1F62173A
:1003D00073078407BA0720F0621B730B840BBA0BF8
:1003E000EE1F88F7E0950895E89409C097FB3EF466
:1003F00090958095709561957F4F8F4F9F4F992372
:10040000A9F0F92F96E9BB279395F69587957795EF
:100410006795B795F111F8CFFAF4BB0F11F460FFAF
:100420001BC06F5F7F4F8F4F9F4F16C0882311F007
:1004300096E911C0772321F09EE8872F762F05C01B
:10044000662371F096E8862F70E060E02AF09A95B6
:10045000660F771F881FDAF7880F9695879597F9AB
:10046000089597F99F6780E870E060E008959FEF36
:1004700080EC089500240A9416161706180609063B
:10048000089500240A94121613061406050608950A
:10049000092E0394000C11F4882352F0BB0F40F492
:1004A000BF2B11F460FF04C06F5F7F4F8F4F9F4FD2
:1004B000089557FD9058440F551F59F05F3F71F054
:1004C0004795880F97FB991F61F09F3F79F08795BB
:1004D0000895121613061406551FF2CF4695F1DF44
:1004E00008C0161617061806991FF1CF86957105D4
:1004F000610508940895E894BB2766277727CB0108
:1005000097F908950E9495020C9448020E943A02BD
:1005100038F00E94410220F0952311F00C94310232
:100520000C94370211240C947C020E94590270F33F
:10053000959FC1F3950F50E0551F629FF001729F88
:10054000BB27F00DB11D639FAA27F00DB11DAA1F97
:10055000649F6627B00DA11D661F829F2227B00DE4
:10056000A11D621F739FB00DA11D621F839FA00D6F
:10057000611D221F749F3327A00D611D231F849FBF
:10058000600D211D822F762F6A2F11249F57504016
:100590009AF0F1F088234AF0EE0FFF1FBB1F661F91
:1005A000771F881F91505040A9F79E3F510580F05A
:1005B0000C9431020C947C025F3FE4F3983ED4F338
:1005C000869577956795B795F795E7959F5FC1F7FE
:1005D000FE2B880F911D9695879597F90895AEE0AB
:1005E000B0E0E5EFF2E00C94B0050D891E8986E0DD
:1005F0008C831A8309838FEF9FE79E838D83AE01DF
:10060000475E5F4F6F89788DCE0101960E9411037E
:10061000EF81F885E00FF11F10822E96E4E00C9434
:10062000CC05ABE0B0E0E7E1F3E00C94A2056C018F
:100630007B018A01FC0117821682838181FFCCC174
:10064000CE0101963C01F6019381F70193FD85915E
:1006500093FF81917F01882309F4BAC1853239F46F
:1006600093FD859193FF81917F01853229F4B60135
:1006700090E00E940805E7CF912C212C312CFFE15E
:10068000F315D8F08B3279F038F4803279F0833278
:10069000A1F4232D20611DC08D3261F0803369F4F7
:1006A000232D216016C0832D8260382EE32DE46057
:1006B0003E2E2AC0F32DF8601DC037FC2DC020ED62
:1006C000280F2A3040F08E32B9F436FC81C1232D38
:1006D0002064322E19C036FE06C08AE0989E200D96
:1006E0001124922E11C0EAE02E9E200D1124222EFC
:1006F000F32DF0623F2E08C08C3621F4832D8068E4
:10070000382E02C0883641F4F70193FD859193FF9E
:1007100081917F018111B3CF982F9F7D95549330A4
:1007200028F40C5F1F4F9FE399830DC0833631F08F
:10073000833771F0833509F059C021C0F8018081F9
:1007400089830E5F1F4F88248394912C530113C01B
:100750002801F2E04F0E511CF801A080B18036FE56
:1007600003C0692D70E002C06FEF7FEFC5010E94EA
:10077000FD044C018201F32DFF773F2E16C02801A6
:1007800022E0420E511CF801A080B18036FE03C069
:10079000692D70E002C06FEF7FEFC5010E94F20487
:1007A0004C01F32DF0683F2E820133FC1BC0822DDB
:1007B00090E088169906B0F4B60180E290E00E94BD
:1007C00008052A94F4CFF50137FC859137FE819115
:1007D0005F01B60190E00E94080521102A9421E0F3
:1007E000821A91088114910471F7E8C0843611F0DF
:1007F000893641F5F80137FE07C060817181828139
:1008000093810C5F1F4F08C060817181072E000C1F
:10081000880B990B0E5F1F4FF32DFF763F2E97FF2E
:1008200009C090958095709561957F4F8F4F9F4F30
:10083000F0683F2E2AE030E0A3010E944405882E94
:10084000861845C0853731F4232D2F7EB22E2AE03D
:1008500030E025C0932D997FB92E8F36C1F018F462
:10086000883579F0B5C0803719F0883721F0B0C0ED
:10087000E92FE061BE2EB4FE0DC0FB2DF460BF2E4B
:1008800009C034FE0AC0292F2660B22E06C028E017
:1008900030E005C020E130E002C020E132E0F801A4
:1008A000B7FE07C060817181828193810C5F1F4F09
:1008B00006C06081718180E090E00E5F1F4FA30150
:1008C0000E944405882E8618FB2DFF773F2E36FEAA
:1008D0000DC0232D2E7FA22E891458F434FE0BC098
:1008E00032FC09C0832D8E7EA82E05C0B82CA32C07
:1008F00003C0B82C01C0B92CA4FE0FC0FE01E80D46
:10090000F11D8081803321F49A2D997EA92E09C092
:10091000A2FE06C0B394B39404C08A2D867809F071
:10092000B394A3FC11C0A0FE06C0B21488F4280C36
:10093000922C9B180EC0B21460F4B60180E290E0D5
:100940000E940805B394F7CFB21418F42B1802C014
:10095000982C212CA4FE10C0B60180E390E00E94E8
:100960000805A2FE17C0A1FC03C088E790E002C002
:1009700088E590E0B6010CC08A2D867859F0A1FE7A
:1009800002C08BE201C080E2A7FC8DE2B60190E0DC
:100990000E940805891438F4B60180E390E00E94B3
:1009A00008059A94F7CF8A94F301E80DF11D808130
:1009B000B60190E00E9408058110F5CF222009F4CD
:1009C00042CEB60180E290E00E9408052A94F6CF5C
:1009D000F6018681978102C08FEF9FEF2B96E2E1AF
:1009E0000C94BE05FC010590615070400110D8F7D1
:1009F000809590958E0F9F1F0895FC016150704067
:100A000001900110D8F7809590958E0F9F1F089543
:100A10000F931F93CF93DF93FB01238121FD03C02D
:100A20008FEF9FEF2CC022FF16C046815781248193
:100A300035814217530744F4A081B1819D012F5F96
:100A40003F4F318320838C93268137812F5F3F4F27
:100A50003783268314C08B01EC01FB010084F185F0
:100A6000E02D0995892BE1F6D80116968D919C9180
:100A70001797019617969C938E931697CE01DF9148
:100A8000CF911F910F910895FA01AA27283051F1B3
:100A9000203181F1E8946F936E7F6E5F7F4F8F4FAF
:100AA0009F4FAF4FB1E03ED0B4E03CD0670F781F0E
:100AB000891F9A1FA11D680F791F8A1F911DA11DF3
:100AC0006A0F711D811D911DA11D20D009F468942C
:100AD0003F912AE0269F11243019305D3193DEF6D4
:100AE000CF010895462F4770405D4193B3E00FD08A
:100AF000C9F7F6CF462F4F70405D4A3318F0495D75
:100B000031FD4052419302D0A9F7EACFB4E0A69557
:100B10009795879577956795BA95C9F70097610579
:100B2000710508959B01AC010A2E069457954795CF
:100B300037952795BA95C9F7620F731F841F951FC4
:100B4000A01D08952F923F924F925F926F927F92D5
:100B50008F929F92AF92BF92CF92DF92EF92FF92CD
:100B60000F931F93CF93DF93CDB7DEB7CA1BDB0B79
:100B70000FB6F894DEBF0FBECDBF09942A8839881E
:100B800048885F846E847D848C849B84AA84B98425
:100B9000C884DF80EE80FD800C811B81AA81B98131
:100BA000CE0FD11D0FB6F894DEBF0FBECDBFED0145
:060BB0000895F894FFCF48
:100BB6004144433A257520563A252E326600415463
:100BC6000D0A0041542B52454E45570D0A0041541B
:100BD6002B52455345540D0A0041542B524F4C4558
:100BE600300D0A0041542B42415544300D0A004154
:100BF600542B4E414D4550726F796563746F504F5B
:100C060054530D0A0053697374656D612064652041
:100C16004D6F6E69746F72656F20646520506F74D6
:100C2600656E6369F36D6574726F730D0A00436FC9
:100C36006D616E646F733A200D0A00273127202DEF
:100C4600204D6F737472617220766F6C74616A6581
:100C560020504F54310D0A00273227202D204D6F8A
:100C6600737472617220766F6C74616A6520504F7E
:100C760054320D0A0053656C656363696F6E616477
:100C86006F20504F54310D0A0053656C65636369DC
:100C96006F6E61646F20504F54320D0A00566F6CB0
:0C0CA60074616A6520504F54003A200031
:00000001FF
